:020000040800F2
:1000000008AE0020E1010008C9180008350A000800
:10001000C518000841030008F13500080000000081
:10002000000000000000000000000000490100087E
:10003000A1050008000000008D010008AD2B00089C
:10004000FB010008FB010008FB010008FB010008A0
:10005000FB010008FB010008FB010008FB01000890
:10006000FB010008FB010008A5050008FB010008D2
:10007000FB010008FB010008FB010008FB01000870
:10008000FB010008FB010008FB010008FB01000860
:10009000FB010008FB010008FB010008FB01000850
:1000A000FB010008FB010008FB010008FB01000840
:1000B000FB010008FB010008FB010008FB01000830
:1000C000FB010008FB010008FB010008FB01000820
:1000D000FB010008FB010008FB010008FB01000810
:1000E000FB010008FB010008FB010008FB01000800
:1000F000FB010008FB010008FB010008FB010008F0
:10010000FB010008511C0008FB010008FB0100086E
:10011000FB010008FB010008FB010008FB010008CF
:10012000FB010008FB010008FB010008FB010008BF
:10013000DFF810D000F0DAF8004800473D52000820
:10014000AFF3008008AE0020224B19680868B0E8C1
:10015000F00F80F30988BFF36F8F4FF0000080F33A
:1001600011884EF00D0E7047000000000648006830
:10017000006880F3088862B661B6BFF34F8FBFF3A3
:100180006F8F00DF00BF00BF08ED00E0EFF30980D4
:10019000BFF36F8F0F4B1A6820E9F00F106008B59E
:1001A0004FF0500080F31188BFF34F8FBFF36F8F74
:1001B00005F06CFF4FF0000080F31188BDE80840A7
:1001C00019680868B0E8F00F80F30988BFF36F8FF3
:1001D000704700BFBC000020EFF3058070470000AF
:1001E0000648804706480047FEE7FEE7FEE7FEE7D1
:1001F000FEE7FEE7FEE7FEE7FEE7FEE7B52B0008B9
:100200003101000840EA01039B0703D009E008C957
:10021000121F08C0042AFAD203E011F8013B00F8CB
:10022000013B521EF9D27047D2B201E000F8012B17
:10023000491EFBD270470022F6E710B513460A4666
:1002400004461946FFF7F0FF204610BD2DE9F05F88
:100250000546002092469B46884606468146402435
:100260001BE0284641464746224600F02FF85346F9
:100270005A46C01A914110D311461846224600F042
:1002800016F82D1A67EB01084F462246012000217F
:1002900000F00DF817EB00094E41201EA4F10104F7
:1002A000DFDC484631462A464346BDE8F09F202A17
:1002B00004DB203A00FA02F1002070479140C2F1BD
:1002C000200320FA03F3194390407047202A04DBEF
:1002D000203A21FA02F00021704721FA02F3D040BF
:1002E000C2F120029140084319467047064C074D61
:1002F00006E0E06840F0010394E8070098471034F6
:10030000AC42F6D3FFF718FF281903084819030871
:1003100000241F2001F0F2F80FE0084800780128BF
:1003200007D1601CC4B21E2C04DB002402F000FDC7
:1003300000E00024642005F09BFDEEE77C00002037
:1003400000BFFEE770B500254FF4803400E0641E66
:1003500024B1802001F05CFC0028F8D014B90325FA
:10036000284670BD40F2FF5001F00AFC2846F8E72D
:10037000014600BF0748406B00F045000028F9D057
:1003800040F2FF50034A9063104640690822104033
:10039000C0B270470080014070B500251048446B22
:1003A00001E00F48446B04F045000028F9D004F048
:1003B000040028B10325042001F0E2FB284670BDAB
:1003C00004F0010028B10125012001F0D9FB2846E5
:1003D000F5E740F2FF5001F0D3FB2846EFE70000BD
:1003E0000080014070B500250B48446B01E00A48CD
:1003F000446B04F045000028F9D004F0040028B153
:100400000325042001F0BCFB284670BD40F2FF50DC
:1004100001F0B6FB2846F8E7008001402DE9F041E5
:1004200006460F464FF000082248456B01E0214880
:10043000456B05F045000028F9D005F0040038B1FF
:100440004FF00308042001F09BFB4046BDE8F0811B
:1004500005F0010030B14FF00108012001F090FBE0
:100460004046F3E701F0CEFBB04203D04FF0100856
:100470004046EBE740F2FF5001F082FB002001F024
:10048000DBFB044604F4604018B9200C3880404679
:10049000DCE704F4005008B11320D7E704F48040EF
:1004A00008B11020D2E704F4004008B10F20CDE7D6
:1004B0004046CBE70080014070B500264FF4803500
:1004C0000F48446B02E06D1E0D48446B04F045007C
:1004D00008B9002DF7D115B104F0040028B10326A6
:1004E000042001F04DFB304670BD04F0400028B1FF
:1004F0000026402001F044FB3046F5E73046F3E7A4
:100500000080014000F0805111B10349086001E012
:1005100002494860704700000404024000000240A5
:1005200021B1026842F00102026004E002684FF665
:10053000FE731A400260704701460020002201F05D
:10054000805313B1054B1A6801E0054B1A6802EAA3
:1005500001030BB1012000E00020704700040240BD
:100560000000024010B50022026847F6F0739A437B
:100570000C6A8B6823430C6923434C6923438C69C1
:100580002343CC6923434C6A23438C6A23431A4395
:100590000260CB6843600B6883604B68C36010BD2A
:1005A0007047000010B5102000F010F828B10120AD
:1005B00002490870102000F003F810BD78000020F8
:1005C0000149086070470000140401400146002002
:1005D0000022074B1B6803EA0102054B14331B681A
:1005E0000B4013B10AB1012000E000207047000069
:1005F0000004014051B18200A2F1C042126842F0F1
:1006000001038200A2F1C042136009E08200A2F15E
:10061000C0421268034B1A408300A3F1C0431A6022
:1006200070470000FEFF0F00D0E901121143C268BD
:100630001143026911434269114382691143C2693E
:100640001143026A1143426A1143826A1143C26A2A
:100650001143026B114302689200A2F1C042116083
:10066000816808290BD101688900A1F1C04109689E
:1006700041F0400201688900A1F1C0410A60416B6C
:100680000968426B526841EA0211426B926841EA82
:100690000221426B928941EA0241426B128A41EA8D
:1006A0000251426B127D41EA0261426B9269114331
:1006B0000268521C9200A2F1C0421160C16AB1F5F9
:1006C000804F1BD1816B0968826B526841EA02112D
:1006D000826B926841EA0221826B128A41EA0251DE
:1006E000826B127D41EA0261826B9269114302685A
:1006F0009200A2F1C042C2F8041107E06FF070420C
:1007000001688900A1F1C041C1F8042170470000CF
:100710002DE9FC4107460D460026002400200090EC
:10072000019008205D4908601020486040208860E2
:100730000020C8604FF480600861084601F0DAFAD2
:100740001020FFF715FE044614B12046BDE8FC81D9
:100750005348008800045149086037204860402011
:1007600088600020C8604FF480600861084601F08E
:10077000C1FA3720FFF7FCFD04460CB12046E5E73F
:100780004FF0FF30474908600820486030208860FB
:100790000220C8600020086101204861084601F07D
:1007A00007FA00203D4908603320486040208860F7
:1007B0000020C8604FF480600861084601F09AFA92
:1007C0003320FFF7D5FD04460CB12046BEE70CE010
:1007D0004FF4001001F01CFA38B101F085FA4DF821
:1007E0002600761C012E00D906E02F48406B40F20F
:1007F0002A6108400028EBD000BF082001F008FA69
:1008000028B1082001F0BCF9042420469EE702200C
:1008100001F0FEF928B1022001F0B2F902242046CD
:1008200094E7202001F0F4F928B1202001F0A8F984
:10083000062420468AE74FF4007001F0E9F930B150
:100840004FF4007001F09CF9072420467EE740F247
:10085000FF5001F095F900980006009901F47F41DE
:1008600040EA0120009901F47F0140EA112000993B
:1008700040EA1160686001980006019901F47F4127
:1008800040EA0120019901F47F0140EA1120019919
:1008900040EA11602860204658E70000101B002045
:1008A00034000020241B00200080014008B50121F5
:1008B000302001F05DF84FF4F850ADF8000003204F
:1008C0008DF8020018208DF803006946094800F0F1
:1008D00015F80420ADF800006946074800F00EF84E
:1008E0000121880201F034F80121022001F030F8E2
:1008F00008BD000000100140001401402DE9F04146
:10090000024600250026002000230024002791F83D
:1009100003C00CF00F0591F803C00CF0100CBCF1F3
:10092000000F03D091F802C04CEA050591F800C011
:10093000BCF1000F31D0146800202BE04FF0010C07
:100940000CFA00F3B1F800C00CEA03069E4220D175
:1009500083004FF00F0C0CFA03F7BC4305FA03FCBD
:100960004CEA040491F803C0BCF1280F06D14FF003
:10097000010C0CFA00FCC2F814C00AE091F803C0A4
:10098000BCF1480F05D14FF0010C0CFA00FCC2F885
:1009900010C0401C0828D1D31460B1F800C0BCF1CD
:1009A000FF0F34DD546800202EE000F1080C4FF0FA
:1009B000010808FA0CF3B1F800C00CEA03069E42E5
:1009C00021D183004FF00F0C0CFA03F7BC4305FA5A
:1009D00003FC4CEA040491F803C0BCF1280F05D1D4
:1009E00000F1080C08FA0CF8C2F8148091F803C062
:1009F000BCF1480F07D100F1080C4FF0010808FACC
:100A00000CF8C2F81080401C0828CED35460BDE812
:100A1000F0810246002093680B400BB1012000E0FA
:100A200000207047416170470161704710B505F0C3
:100A300037FC10BD00BFFEE710B504462CB14FF4E3
:100A400080510548FFF7EEFF04E04FF48051024863
:100A5000FFF7EAFF10BD0000001401402DE9F0414E
:100A600006460F4614461D46DDF818802B462246E2
:100A70003946304600F028FB04FB05F0414600F003
:100A8000E5F9BDE8F08101B502E00098401E009054
:100A900000980028F9D108BD2DE9F05F81468A460B
:100AA00015461E46A5F1200000F0FF0B102308227A
:100AB0005146484600F008FB2C2003F071FA002450
:100AC0001AE00F4800EB0B10075D4FF000080EE036
:100AD00007F0010018B10A9800F052FC02E030461D
:100AE00000F04EFC7F1008F1010000F0FF08B8F1A3
:100AF000080FEDDB601CC4B2102CE2DBBDE8F09FF8
:100B0000386500082DE9F84305460E4614461F4691
:100B1000DDF820801AE028460830F02803DD0025A3
:100B200006F1100086B230461030B0F5A07F01DD2E
:100B300000250026CDF8008022783B463146284625
:100B4000FFF7AAFF641C05F1080085B22078002891
:100B5000E1D1BDE8F8832DE9F05F05460E469146E8
:100B60009B4600240FFA89F70320A0EB49000FFAF7
:100B700080FA97E00A98002848D0A04643E006EBA8
:100B8000080291B22A1990B25A4600F0E7FB06EB30
:100B9000080291B22A1B90B25A4600F0DFFB3219CC
:100BA00091B2A5EB080290B25A4600F0D7FB321B77
:100BB00091B2A5EB080290B25A4600F0CFFBA6EB2B
:100BC000080291B22A1B90B25A4600F0C7FBA6EB6E
:100BD000080291B22A1990B25A4600F0BFFB321BAC
:100BE00091B205EB080290B25A4600F0B7FB3219F9
:100BF00091B205EB080290B25A4600F0AFFB08F143
:100C000001000FFA80F8B845B9DD37E0F21991B26A
:100C10002A1990B25A4600F0A1FBF21991B22A1B90
:100C200090B25A4600F09AFB321991B2EA1B90B288
:100C30005A4600F093FB321B91B2EA1B90B25A461F
:100C400000F08CFBF21B91B22A1B90B25A4600F0C6
:100C500085FBF21B91B22A1990B25A4600F07EFB36
:100C6000321B91B2EA1990B25A4600F077FB321962
:100C700091B2EA1990B25A4600F070FB601C04B2BF
:100C8000BAF1000F05DAA000801D50440FFA80FA77
:100C900007E0E01B80000A3050440FFA80FA781E0B
:100CA00007B200BFBC427FF765AFBDE8F09F2DE9FA
:100CB000FF4F85B081468A464FF0000B002001901F
:100CC0000798A0EB09050898A0EB0A06CDF80C9050
:100CD000CDF808A0002D01DD012705E00DB90027A2
:100CE00002E04FF0FF376D42002E02DD4FF00108A9
:100CF00006E016B94FF0000802E04FF0FF387642E8
:100D0000B54201DD2C4600E03446002004901EE090
:100D1000129ADDE9021000F021FBAB440198304447
:100D20000190A34505DDABEB040B0398384480B27A
:100D300003900198A04206DD0198001B01900298E3
:100D4000404480B202900498401C80B20490611C20
:100D500004988842DCDD09B0BDE8F08F2DE9F84346
:100D600004460D4616461F46DDE90889B9F1000F15
:100D700008D03B46324629462046CDF80080FFF792
:100D80006DFE2FE0A019401E82B22B462946204658
:100D9000CDF80080FFF78BFFE819401E83B2A01941
:100DA000401E82B2E819401E81B22046CDF8008074
:100DB000FFF77DFFE819401E83B2224629462046F0
:100DC000CDF80080FFF773FFE919491E8BB2A11916
:100DD000491E8AB2A119491E88B22946CDF8008061
:100DE000FFF765FFBDE8F88300B597B00121080261
:100DF00000F0AEFD0220019000200290052003903B
:100E000000200490059006904FF08050079000203D
:100E10000890099008200A9010200B9000200C9058
:100E20000E900F9010904FF480501190002012906F
:100E30001390149001A81590169008A8FFF7F4FBE2
:100E400001210020FFF7D6FB17B000BD70B50446A6
:100E50000D4600262C2003F0A3F800BF03E028462F
:100E600000F08EFA761CA642F9D370BD08B50121B8
:100E7000084600F07DFD0121602000F079FD03208F
:100E80008DF8020018208DF803004CF20370ADF8C5
:100E9000000069463348FFF731FD4FF68070ADF82A
:100EA000000069463048FFF729FD03208DF8020055
:100EB00018208DF803001020ADF80000694629487D
:100EC000FFF71CFD2020ADF8000069462548FFF71C
:100ED00015FD0121202000F04BFD8020ADF8000021
:100EE00069462048FFF70AFD0121202000F040FD5F
:100EF0004FF40060ADF8000069461A48FFF7FEFCA9
:100F000010208DF8030003208DF8020001214020FD
:100F100000F02EFD0220ADF8000069461248FFF7F0
:100F2000EDFC10208DF8030003208DF80200012154
:100F3000202000F01DFD4FF48050ADF80000694600
:100F40000848FFF7DBFC02210748FFF76DFD802111
:100F50000448FFF769FD4FF400610248FFF764FDA4
:100F600008BD0000001401400018014000B5024611
:100F7000012A06D0022A29D0032A4CD0042A24D1DF
:100F80006EE0362003F00CF8C82003F0ABF92A20FD
:100F900003F006F8002003F0A5F9002003F0A2F901
:100FA000002003F09FF9EF2003F09CF92B2002F0C2
:100FB000F7FF002003F096F9002003F093F90120D9
:100FC00003F090F93F2003F08DF96EE0362002F037
:100FD000E7FF682003F086F92A2002F0E1FF0020F5
:100FE00003F080F9002003F07DF9002003F07AF986
:100FF000EF2003F077F92B2002F0D2FF002003F05E
:1010000071F9002003F06EF9012003F06BF93F2025
:1010100003F068F949E0362002F0C2FF282003F00F
:1010200061F92A2002F0BCFF002003F05BF90020E8
:1010300003F058F9002003F055F9EF2003F052F9BE
:101040002B2002F0ADFF002003F04CF9002003F04C
:1010500049F9012003F046F93F2003F043F924E069
:10106000362002F09DFF482003F03CF92A2002F0D0
:1010700097FF002003F036F9002003F033F9002039
:1010800003F030F9EF2003F02DF92B2002F088FF58
:10109000002003F027F9002003F024F9012003F0D9
:1010A00021F93F2003F01EF900BF00BF2C2002F001
:1010B00077FF00BD10B5FFF7D9FEFFF795FE00F0F2
:1010C00003F900F02DF810BD30B504460D462A2076
:1010D00002F066FF201203F005F9E0B203F002F916
:1010E000A118491EC1F30F2003F0FCF8A118491EF6
:1010F000C8B203F0F7F82B2002F052FF281203F0D9
:10110000F1F8E8B203F0EEF8E918491EC1F30F2038
:1011100003F0E8F8E918491EC8B203F0E3F830BD5F
:1011200010B5FE2002F03CFFFE2002F039FFEF2058
:1011300002F036FF362002F033FF482003F0D2F8E9
:101140003A2002F02DFF052003F0CCF8862002F0B3
:1011500027FF982003F0C6F8892002F021FF032022
:1011600003F0C0F88B2002F01BFF802003F0BAF8D8
:101170008D2002F015FF332003F0B4F88E2002F02A
:101180000FFF0F2003F0AEF8E82002F009FF122055
:1011900003F0A8F8002003F0A5F8C32002F000FF38
:1011A0001D2003F09FF8C42002F0FAFE1D2003F07A
:1011B00099F8C92002F0F4FE0F2003F093F8FF2005
:1011C00002F0EEFE622003F08DF8992002F0E8FEB6
:1011D0003E2003F087F89D2002F0E2FE4B2003F052
:1011E00081F8982002F0DCFE3E2003F07BF89C2082
:1011F00002F0D6FE4B2003F075F8F02002F0D0FE8E
:10120000492003F06FF80B2003F06CF8092003F07D
:1012100069F8082003F066F8062003F063F82E2032
:1012200003F060F8F22002F0BBFE492003F05AF808
:101230000B2003F057F8092003F054F8082003F0BE
:1012400051F8062003F04EF82E2003F04BF8F12061
:1012500002F0A6FE452003F045F8922003F042F884
:10126000932003F03FF82B2003F03CF8312003F0EB
:1012700039F86F2003F036F8F32002F091FE452094
:1012800003F030F8922003F02DF8932003F02AF8B1
:101290002B2003F027F8312003F024F86F2003F00F
:1012A00021F8352002F07CFE002003F01BF811200D
:1012B00002F076FE7820FFF7E6FB292002F070FEB0
:1012C0002C2002F06DFE10BD10B502211C48FFF766
:1012D000ABFB1C48FFF7D7FB1A48FFF7D4FB1948B4
:1012E000FFF7D1FB02211648FFF79CFB1548FFF7DB
:1012F000CAFB1448FFF7C7FB1248FFF7C4FB0221E3
:101300000F48FFF791FB0F48FFF7BDFB0D48FFF7B4
:10131000BAFB0C48FFF7B7FB0A48FFF7B4FB0948D4
:10132000FFF7B1FB0748FFF7AEFB0648FFF7ABFB43
:101330000448FFF7A8FB0348FFF7A5FB10BD00001A
:1013400000180140FCBF020030B504460D460123E1
:101350001A4629462046FFF7B7FE30BD70B506464F
:101360000C461546F02E0ADAB4F5A07F07DA2146BE
:101370003046FFF7E9FF29460120FFF767FD70BD02
:101380000112024A11801146088070470000026075
:101390004FF2DE7000F0B2F81FE000F04DF80446A6
:1013A000012C04D0022C05D0042C12D105E001F050
:1013B000CDFC0EE001F0BCFC0BE001F069FC012863
:1013C00003D1002001F010FD02E0012001F00CFD2E
:1013D00000BF00BF142004F04BFDDEE700E0401E1C
:1013E0000028FCD17047000008B50121102000F052
:1013F000BFFA0121102000F0BBFA0121102000F0FB
:10140000B7FA48208DF803000120ADF800006946C6
:101410000848FFF773FA0220ADF800006946054856
:10142000FFF76CFA0420ADF8000069460148FFF7A9
:1014300065FA08BD0010014070B50025012128485B
:10144000FFF7E7FA064602212548FFF7E2FA46EAE7
:10145000400604212248FFF7DCFA46EA8000C4B2C5
:10146000072020EA0404B4B304F00300032807D1E2
:101470001C48007800F00300032801D004251EE07A
:1014800004F00200022806D11648007800F002009D
:1014900008B9022513E004F00400042806D111481D
:1014A000007800F0040008B9032508E004F001000A
:1014B00028B10C48007800F0010000B901254AF677
:1014C000FF70FFF78BFF4AF6FF70FFF787FF4AF6C2
:1014D000FF70FFF783FF03480470284670BD0000CB
:1014E000001001402900002010B504460CB1012174
:1014F00000E000210846FFF79FFA10BD38B504460A
:101500000448009403880448028800210846FFF735
:10151000A5FA38BD2C0000202A0000202DE9F84350
:1015200004460D4616461F46DDF820803B463246EF
:1015300029462046CDF80080FFF70DFBBDE8F88373
:101540002DE9F84304460D4616461F46DDF8208077
:101550003B46324629462046CDF80080FFF7A7FBE0
:10156000BDE8F8832DE9FC4704460D4616461F46A4
:10157000DDE90A893B46324629462046CDE9008905
:10158000FFF7ECFBBDE8FC870148008870470000CE
:101590002C00002001480088704700002A0000202D
:1015A00010B5FFF787FD10BD2DE9F04387B0064663
:1015B0000F4614461D46DDE90E8923462A4607A13B
:1015C00002A802F027F8434602AA39463046CDF871
:1015D000009000F007F807B0BDE8F08325302A64DA
:1015E000000000002DE9F84304460D4616461F464C
:1015F000DDF820803B46324629462046CDF8008063
:10160000FFF780FABDE8F8832DE9F74F9CB0A8A159
:1016100006A81E9A01F0FEFF012206A9A64803F0C3
:101620003FFAA64908700846007808BB0BAB0222B7
:101630000CA9A14803F0EEFABDF8300044F642517F
:10164000884202D01FB0BDE8F08F0BAB0C2217A967
:10165000994803F0DFFA17A804F06EFA0BAB2822C2
:101660000DA9954803F0D6FA0DA804F066FA6CE0CF
:10167000924800780A285BD2DFE800F05A05101B78
:1016800026303B465A514FF478404FF4A073F02275
:10169000002100900846FFF7E1F954E04FF6E070B2
:1016A0004FF4A073F022002100900846FFF7D6F90E
:1016B00049E04FF4FC604FF4A073F0220021009049
:1016C0000846FFF7CBF93EE01F204FF4A073F0224D
:1016D000002100900846FFF7C1F934E040F2FF70A6
:1016E0004FF4A073F022002100900846FFF7B6F9EE
:1016F00029E04FF61F004FF4A073F0220021009064
:101700000846FFF7ABF91EE04CF218604FF4A073E7
:10171000F022002100900846FFF7A0F913E0002016
:101720004FF4A073F02201460090FFF797F90AE00A
:101730004FF6FF704FF4A073F0220021009008468E
:10174000FFF78CF900BF00BF7CE70E9E0F9FBDF82E
:101750004210714301F11F00C11700EBD161491123
:101760004FEA8108B8F5347F00DD6BE70120FFF711
:10177000FDFBBBB2B2B2DDE91C01FFF7A5FC2C20DA
:1017800002F00EFCBDF84200012854D10BAB082238
:1017900004A9494803F03EFA06F11F00C11700EB07
:1017A000D16149114FEA8108B8F5707F00DD49E742
:1017B000BBB2B2B2DDE91C01FFF786FC2C2002F0BF
:1017C000EFFB002534E0781B401E199A00FB08212E
:1017D000394803F077F80BAB42463949364803F0F5
:1017E00019FA002421E02046E11704EB5171C910D9
:1017F0000391E11704EB5171C910A4EBC101C1F1D0
:10180000070102912E490398085C0299084100F0F3
:1018100001000190019810B14FF6FF7A01E04FF0FE
:10182000000A5046FFF7ACFD641CB442DBDB6D1CC4
:10183000BD42C8DB37E0BDF84200182832DB002586
:101840002DE0781B401E199A00FB08211A4803F06E
:1018500039F80BAB42461A49174803F0DBF900246C
:101860001AE004EB4409164909F10200095C1A91D7
:101870001349401E095C1B91114810F809B04FEA4A
:10188000EB01CA021B99891042EA41121A9942EAF5
:10189000E100FFF775FD641CB442E2DB6D1CBD4244
:1018A000CFDB00E0CEE6044803F001F800BFC9E654
:1018B000303A25730000000088090020280000202D
:1018C0006601002000BFFEE77047000070B50021F0
:1018D00000230F22C47804B3154C246804F4E06498
:1018E000C4F5E064210AC1F10403CA40447804FA53
:1018F00003F184781440214309010E4C0678A15568
:10190000047804F01F050124AC4005786D11AD008A
:1019100005F1E025C5F8004109E0047804F01F0551
:101920000124AC40044D0678761145F8264070BD80
:101930000CED00E000E400E080E100E0024901433A
:10194000024A1160704700000000FA050CED00E04B
:1019500029B1064A52690243044B5A6104E0034A22
:1019600052698243014B5A617047000000100240E7
:1019700029B1064A92690243044B9A6104E0034A82
:1019800092698243014B9A61704700000010024047
:1019900030B500210022002400232D4D6D6805F094
:1019A0000C0121B1042905D0082923D105E0294DD6
:1019B000056022E0274D05601FE0254D6D6805F4A8
:1019C0007012234D6D6805F48034022505EB9242B8
:1019D0001CB9214D554305600BE01D4D6D6805F4A4
:1019E00000351DB11C4D5543056002E0194D5543AE
:1019F000056002E0174D056000BF00BF144D6D6823
:101A000005F0F0010909154D6B5C0568DD40456086
:101A10000F4D6D6805F4E061090A104D6B5C456877
:101A2000DD4085600A4D6D6805F46051C90A0B4DB3
:101A30006B5C4568DD40C560054D6D6805F440414F
:101A4000890B074D6B5CC568B5FBF3F5056130BDCF
:101A50000010024000127A0000093D00140000202E
:101A6000240000207CB50546002400200090019051
:101A700000F0E2F800F0007010B10E2420467CBDAA
:101A80003D49098888B26946FEF742FE04460CB11A
:101A90002046F4E7012D36D1019800F4802000287B
:101AA0002ED035480088000434490860372048604B
:101AB000402088600020C860A8020861084600F045
:101AC00019F93720FEF754FC04460CB12046D6E73E
:101AD00002202A49086006204860402088600020D3
:101AE000C8604FF480600861084600F003F90620E2
:101AF000FEF73EFC04460CB12046C0E72046BEE798
:101B000025242046BBE7019800F4803078B31A48BA
:101B10000088000419490860372048604020886028
:101B20000020C8604FF480600861084600F0E2F8C9
:101B30003720FEF71DFC04460CB120469FE700202D
:101B40000E49086006204860402088600020C86078
:101B50004FF480600861084600F0CCF80620FEF7DC
:101B600007FC04460CB1204689E7204687E7FFE7DB
:101B70002524204683E7000034000020101B0020AD
:101B80000149886370470000008001400149886373
:101B90007047000000800140014908607047000064
:101BA000A000304201490860704700008C053042B7
:101BB00000210A4B02685A6242689A621A46D16A48
:101BC00021F0F701D0E902231A4303691A4343695C
:101BD0001A431143014AD16270470000008001405E
:101BE00000200649086048608860C86048628862D2
:101BF000C862034888630020C863704700800140C2
:101C0000FF07C00001480069C0B270470080014072
:101C100001460020034A526B0A400AB1012000E04D
:101C200000207047008001400248006800F0030077
:101C3000704700000080014008B501460020009078
:101C40000248084400900098006808BD14800140D4
:101C500010B500F045FC10BD29B1064AD26B024315
:101C6000044BDA6304E0034AD26B8243014BDA632C
:101C7000704700000080014000210A4A516847F681
:101C8000FF629143027D83681A4343681A43C36825
:101C90001A4303681A4303691A431143014A516006
:101CA000704700000080014008B531208DF8000029
:101CB00006208DF8010000208DF8020001208DF82B
:101CC00003006846FFF702FE3B208DF80000062067
:101CD0008DF8010000208DF8020001208DF803002E
:101CE0006846FFF7F3FD08BD014800687047000033
:101CF000808001400021094B02689A601A46D16831
:101D00006FF30A01D0E901231A43C3681A43036938
:101D10001A431143014AD16070470000008001401E
:101D20000549096821F00301034A11601146096859
:101D300001431160704700000080014010B5024867
:101D4000FEF7FAFB10BD00000020001030B58BB08C
:101D500005460C461348FEF7D5FB00211248FEF756
:101D6000DFFB12480090019500200290A00803902C
:101D7000002004908020059080000690800007904D
:101D8000002008904FF40050099000200A90694606
:101D90000548FEF7E7FB01210348FEF7C1FB0BB046
:101DA00030BD000000F0001044040240808001407B
:101DB00030B58BB005460C461348FEF7A3FB002157
:101DC0001248FEF7ADFB12480090019510200290DA
:101DD000A0080390002004908020059080000690C9
:101DE00080000790002008904FF4005009900020D8
:101DF0000A9069460548FEF7B5FB01210348FEF746
:101E00008FFB0BB030BD000000F000104404024016
:101E10008080014070B504460025214800680328F1
:101E200002D12725284670BD1D48006838B11C48DE
:101E30000068012803D01A48006802282ED1B4F5A2
:101E4000805F02D127252846EDE7B4F5006F14D155
:101E50000120FFF707FE054605BB01201149087563
:101E600000200860486088604FF40060C86000206F
:101E700008610846FFF700FF10E00020FFF7F2FDC1
:101E800005465DB9012007490875002008604860D3
:101E90008860C86008610846FFF7EEFE2846C2E782
:101EA00030000020F81A002030B501460020002242
:101EB000AC4B1B7881F84E30AB4B1B88A1F84C30F3
:101EC000AA4B1B681A0E93090B70C2F383034B7065
:101ED00002F003038B70A54B1B68C3F30742CA7063
:101EE000A24B1B88C3F307220A71A04B1A784A71D0
:101EF0005B681A0E1301CB809C4B5B68C3F30742EF
:101F0000CB8843EA1213CB8002F00F030B72974B7E
:101F10009B88C3F30722D3094B72C2F380138B72E1
:101F2000C2F34013CB72C2F300130B7300234B7345
:101F30008C4B1B681BB18B4B1B68012B3CD193074F
:101F40001B0D0B61894B1A790B6943EA82030B6104
:101F5000864B9B681A0E0B6943EA92130B61C2F31E
:101F6000C2030B7502F007034B75804B9B68C3F3EC
:101F7000074253098B75C2F38203CB7593075B0F3E
:101F80000B767A4B1B89C3F307220B7E43EAD213ED
:101F90000B760B695B1C4B640C7E4B6CA41C0125FF
:101FA000A5406B434B640C7A0123A3408B64D1E9B9
:101FB000113463434B6421E06A4B1B68022B1DD133
:101FC0006A4B1A7993069B0A0B61684B9B681A0E41
:101FD0000B6943EA02230B61644B9B68C3F307421E
:101FE0000B6913430B61614B1B89C3F307220B6918
:101FF0005B1CDB044B644FF400738B64C2F38013EF
:1020000001F8193F93065B0E4B70584B1A7A4B78C8
:1020100043EAD2134B7002F07F038B70534BDB68A3
:102020001A0ED309CB70C2F341130B71C2F38203B2
:102030004B7193071B0F8B714C4BDB68C3F307424B
:102040008B7943EA92138B71C2F34013CB71002357
:102050000B7202F001034B72444B9B89C3F30722BE
:10206000D3098B72C2F38013CB72C2F340130B738C
:10207000C2F300134B73C2F381038B7302F00303AB
:10208000CB733A4B1A7B53080B7401234B74384BB8
:102090001B681A0ECA741939354B1B68C3F3074203
:1020A0001402CC85324B1B88C3F30722CB8D13431C
:1020B000CB852F4B1A7814060C635B681A0E0B6BDA
:1020C00043EA02440C632A4B5B68C3F307420B6B81
:1020D00043EA02240C63264B9B88C3F307220B6B55
:1020E00013430B63224B1A7934235A54204B9B68B9
:1020F0001A0E35235A541E4B9B68C3F3074214062D
:102100008C631B4B1B89C3F307228B6B43EA02448E
:102110008C63174B1A7A8B6B43EA02248C63144B43
:10212000DB681A0E8B6B13438B63114BDB68C3F3B5
:1021300007423C235B5C43EA12143C235C541307C4
:102140001C0DCC870A4B9B89C3F30722CB8F13430B
:10215000CB87074B1A7B540840235C54012441234E
:102160005C5430BD3000002034000020781A00207C
:10217000881A002008B500200090684600F0D8FAC0
:1021800008B1FF2008BD0098C0F34320FAE710B55E
:102190000424FFF7EFFF0446042C01D1002010BDFA
:1021A000FF2C01D10220FAE70120F8E710B5002446
:1021B000FEF77CFBFFF714FD00F0CEF804460CB1EF
:1021C000204610BD00F02AF804460CB12046F8E77E
:1021D0000120104908750020086048608860C860C8
:1021E00008610846FFF748FD1CB90B48FFF75CFE85
:1021F000044634B90849B1F84C10080400F07EFADE
:10220000044624B94FF40060FFF704FE044620465C
:10221000D7E70000F81A0020A81A002038B50024DB
:1022200001200090FFF700FD10B92524204638BD9D
:1022300044480068042828D0002043490860022050
:102240004860C02088600020C8604FF4806008614A
:102250000846FFF74FFDFEF79FF804460CB12046F5
:10226000E5E70020FFF7E8FC384908600420FFF7A5
:10227000E3FC364948600820FFF7DEFC33498860FC
:102280000C20FFF7D9FC3149C8602E48006858B1CE
:102290002C480068012807D02A480068062803D087
:1022A00028480068022816D100202749086003202A
:1022B0004860402088600020C8604FF4806008615A
:1022C0000846FFF717FD69460320FEF7A7F8044606
:1022D0000CB12046ABE71B48006804282ED0BDF89F
:1022E00000001B490860BDF80000000416490860A2
:1022F00009204860C02088600020C8604FF48060DA
:1023000008610846FFF7F6FCFEF746F804460CB1F4
:1023100020468CE70020FFF78FFC0E490860042060
:10232000FFF78AFC0B4948600820FFF785FC094944
:1023300088600C20FFF780FC0649C8600024204616
:1023400075E7000030000020101B0020881A0020D4
:1023500034000020781A00202DE9F04100240026E6
:1023600000250027A046B2205949087500200860C2
:1023700048608860C86008610846FFF77DFC03205C
:10238000FFF7CEFC0120FFF707FC00205149086051
:1023900048608860C8604FF4806008610846FFF7B5
:1023A000A9FCFDF7CFFF044614B12046BDE8F0813B
:1023B0004FF4D57047490860082048604020886085
:1023C0000020C8604FF4806008610846FFF792FC67
:1023D000FEF772F804462CB901203F4908604FF01F
:1023E000804812E000203B490860372048604020C8
:1023F00088600020C8604FF4806008610846FFF7DD
:1024000079FC3720FDF7B4FF04460020314908600D
:1024100037204860402088600020C8604FF480600A
:1024200008610846FFF766FC3720FDF7A1FF044668
:10243000002C4AD136E00020264908603720486049
:10244000402088600020C8604FF480600861084622
:10245000FFF750FC3720FDF78BFF04460CB12046F8
:10246000A4E71E4848EA00001A490860292048608D
:10247000402088600020C8604FF4806008610846F2
:10248000FFF738FCFDF7AEFF04460CB120468DE7A0
:102490000020FFF7D1FB0646012080EAD67080F0CD
:1024A00001076D1C1FB94FF6FF708542C3D34FF66D
:1024B000FF70854202D31B24204677E706F0804058
:1024C000061E02D002200449086020466EE7000084
:1024D000F81A0020101B002030000020000010809F
:1024E00010B51148006801280BD100200F49886001
:1024F00040F24C40C8600C20FDF73AFF0C490870D0
:1025000002E000200A4908704FF48070FFF73EFB9C
:1025100000214FF48070FFF79FFB01200549086000
:102520000348007810BD0000380000200080014002
:102530003C000020400000202DE9F04107460D46F8
:102540001446002600202C4908702C4908602C49AC
:1025500008602C49C8622C480068022801D1040296
:102560006D0A2A480460102028494860402088608D
:102570000020C8604FF4806008610846FFF7BAFB8E
:102580001020FDF7F5FE064616B13046BDE8F08195
:102590004FF0FF301E490860084644609020886074
:1025A0000220C86000200861012048610846FFF74A
:1025B000FFFA1648056011201449486040208860E1
:1025C0000020C8604FF4806008610846FFF792FB66
:1025D0001120FDF7CDFE06460EB13046D6E70121AB
:1025E0000802FFF739FB0120FFF7DCFA21463846E5
:1025F000FFF7ACFB3046C9E73C000020400000205C
:10260000380000200080014030000020101B002016
:10261000241B00202DE9F04180460D4614461E463D
:10262000002700202E4908702E49086001202E49FD
:10263000086000202D49C8622D480068022801D199
:1026400004026D0A2B48046010202A49486040208B
:1026500088600020C8604FF4806008610846FFF77A
:1026600049FB1020FDF784FE074617B13846BDE848
:10267000F0814FF0FF302049086006FB04F048600D
:10268000902088600220C860002008610120486115
:102690000846FFF78DFA1748056012201549486073
:1026A000402088600020C8604FF4806008610846C0
:1026B000FFF720FB1220FDF75BFE07460FB13846FF
:1026C000D5E701210802FFF7C7FA0120FFF76AFAF0
:1026D00006FB04F14046FFF739FB3846C7E7000028
:1026E0003C00002040000020380000200080014015
:1026F00030000020101B0020241B002070B5044671
:1027000000250A4804600720084948604020886086
:102710000020C8604FF4806008610846FFF7EAFABD
:102720000720FDF725FE0546284670BD101B00203A
:1027300070B5044600250A480088000409498860ED
:1027400040F24D40C8600D20FDF712FE05460DB168
:10275000284670BD0348406920602846F9E700001C
:10276000340000200080014010B5002400BFFFF7B6
:10277000E5FA30B90748006818B90748007800281A
:10278000F5D00548007810B10348007810BD204608
:10279000FCE70000400000203C00002010B50024B1
:1027A00000BFFFF7CBFA30B90948006818B90948EB
:1027B00000780028F5D00748007810B10548007867
:1027C00010BD40F2FF50FFF7DBF92046F8E70000AC
:1027D000400000203C0000202DE9F04107460D4656
:1027E0001446002600202C4908702C4908602C490A
:1027F00008602C49C8622C480068022801D10402F4
:102800006D0A2A48046010202849486040208860EA
:102810000020C8604FF4806008610846FFF76AFA3C
:102820001020FDF7A5FD064616B13046BDE8F08143
:102830001E48056018201D4948604020886000201F
:10284000C8604FF4806008610846FFF753FA18200B
:10285000FDF78EFD06460EB13046E7E74FF0FF303C
:102860001349086008464460902088600020C860D2
:102870000861012048610846FFF79AF90121080222
:10288000FFF7EAF921463846FFF792FA0120FFF7F1
:1028900089F93046CAE700003C00002040000020D3
:1028A000380000200080014030000020101B002074
:1028B000241B00202DE9F84380460F4615461E468E
:1028C0000024002000904549087045490860012017
:1028D0004449086000204449C8624448006802280E
:1028E00001D105027F0A4248056010204049486036
:1028F000402088600020C8604FF48060086108466E
:10290000FFF7F8F91020FDF733FD044614B1204617
:10291000BDE8F8833748008800043549086037204F
:102920004860402088600020C8604FF480600861E3
:102930000846FFF7DFF93720FDF71AFD04460CB112
:102940002046E5E72A4806601720294948604020CC
:1029500088600020C8604FF4806008610846FFF777
:10296000C9F91720FDF704FD04460CB12046CFE756
:102970001F48076019201E494860402088600020D9
:10298000C8604FF4806008610846FFF7B3F919206A
:10299000FDF7EEFC04460CB12046B9E74FF0FF30DE
:1029A0001549086006FB05F048609020886000200B
:1029B000C8600861012048610846FFF7F9F8012165
:1029C0000802FFF749F90120FFF7ECF806FB05F1D3
:1029D0004046FFF7EDF920469AE700003C00002052
:1029E000400000203800002000800140300000201E
:1029F000101B002034000020241B002010B5FFF71E
:102A000053F90249002002F035F810BDD00D002026
:102A100010B500F001F810BD0CB500200190009039
:102A20003348006840F480303149086000BF3048C6
:102A3000006800F4003000900198401C019000985C
:102A400018B90198B0F5A06FF1D12948006800F4D9
:102A5000003010B10120009001E0002000900098AB
:102A6000012843D12348006840F010002149086044
:102A70000846006820F0030008600846006840F03F
:102A8000020008601A4840681949486008464068D2
:102A900048600846406840F48060486008464068E6
:102AA00020F47C1048600846406840F4E810486014
:102AB0000846006840F08070086000BF0C4800685D
:102AC00000F000700028F9D00948406820F00300A9
:102AD000074948600846406840F00200486000BF6F
:102AE0000348406800F00C000828F9D10CBD000034
:102AF00000100240002002407CB504460020FEF792
:102B0000FDFCFEF747FD054601201F211E232A4636
:102B1000CDE9001000210846FEF724FD4FF6FF70B6
:102B20001F232246082100900A20FEF75BFD124871
:102B30000078012809D14FF6E0701F230FA2082169
:102B40000090AA20FEF74EFD08E04FF4FC601F2322
:102B50000CA208210090AA20FEF744FDFEF714FD08
:102B6000143885B24FF6FF70002309A22946009061
:102B70000A20FEF737FD7CBD7C0000205B415554E8
:102B80004F5D00005B4D414E55414C5D0000000023
:102B90004B313A50524556204B31323A4D4F444515
:102BA000204B323A4E4558540000000010B503F057
:102BB0002DFB10BD10B51348006840F0010011490D
:102BC000086008464068104908400E4948600846B9
:102BD00000680E4908400B4908600846006820F468
:102BE000802008600846406820F4FE0048604FF4EA
:102BF0001F008860FFF70CFF4FF000600449086079
:102C000010BD0000001002400000FFF8FFFFF6FEBC
:102C100008ED00E010B5044615481649097800EBA8
:102C20000110C06830B11249124A127801EB02114A
:102C3000C86880470F4804700D480E49097800EBBA
:102C40000110406830B10A490A4A127801EB0211BA
:102C5000486880470020084908700548054A1278EE
:102C600000EB0210016805A000F0C4FC10BD0000DC
:102C7000286B00087D0000207E000020E8BF9BE557
:102C800085A5E6B58BE8AF953A2025730A000000CC
:102C900001480078704700007C00002010B5FEF766
:102CA000A3FBFEF77DFC0120FEF71EFC0020FEF7D3
:102CB00025FC07A000F09EFC10A000F09BFC092161
:102CC00016A000F097FC02A000F094FC10BD0000DC
:102CD0003D3D3D3D3D3D3D3D3D3D3D3D3D3D3D3D24
:102CE0003D3D3D3D3D3D3D3D3D3D3D3D3D3D3D3D14
:102CF0003D3D3D3D3D3D3D3D0A000000E6B58BE8D4
:102D0000AF95E6A186E69EB6E5889DE5A78BE58CA6
:102D100096E5AE8CE688905C6E000000E585B125F6
:102D200064E4B8AAE6B58BE8AF95E9A1B90A00005A
:102D300010B505480078401CC4B2092C00D300240B
:102D40002046FFF767FF10BD7D00002010B5064844
:102D5000007808B9082403E003480078401EC4B294
:102D60002046FFF757FF10BD7D0000201CB510481E
:102D700002210023CA01CDE900100EA10F4803F083
:102D80005FFA0F48012100230A02CDE900100DA1CE
:102D90000F4803F055FA0F48032100234FF4007247
:102DA000CDE900100CA10F4803F04AFA1CBD000049
:102DB000800000204B65795461736B00911300080B
:102DC000840000204175746F5461736B0000000033
:102DD0001103000888000020557064617465546117
:102DE000736B0000152F00082DE9F84304462948AD
:102DF0000470012C01D128A000E029A001462AA0DE
:102E000000F0F8FB012C21D1FEF7BEFB054600EBDC
:102E1000D5704710FEF7BEFB064600EBD67040109B
:102E20001E381FFA80F84FF6E070002324A23946BE
:102E300000904046FEF7D6FB4FF6E0701F2323A21A
:102E400008210090AA20FEF7CDFB20E0FEF79CFBB6
:102E5000054600EBD5704710FEF79CFB064600EBDD
:102E6000D670401023381FFA80F84FF4FC6000231E
:102E700018A2394600904046FEF7B4FB4FF4FC60C0
:102E80001F2317A208210090AA20FEF7ABFBBDE884
:102E9000F88300007C000020E887AAE58AA80000EB
:102EA000E6898BE58AA80000E6A8A1E5BC8FE8AE1C
:102EB000BEE7BDAEE4B8BA3A2025730A00000000B0
:102EC0004155544F204D4F44450000005B4155543F
:102ED0004F5D00004D414E55414C204D4F44450043
:102EE0005B4D414E55414C5D0000000010B5074858
:102EF0000749097800EB0110806830B10349044AA2
:102F0000127801EB02118868804710BD286B000819
:102F10007D00002008B503F0C3F9009000BF05E074
:102F2000FFF7E4FF3221684602F0E0FFF8E7704760
:102F3000002002490870024908607047AC00002078
:102F4000B000002010B51648007830B1012811D02B
:102F500002281BD0032821D11FE012A2002108461D
:102F6000FEF752FB01200E490870FDF75FFD0F4987
:102F7000086013E0FDF75AFD0C490968401AB0F5E6
:102F8000FA6F02D302200649087007E008A0FFF795
:102F9000B3FD03200249087000E000BF00BF10BD70
:102FA000AC0000202F312E626D700000B0000020B8
:102FB000424D502042524F57534552000020024983
:102FC00008700249086070479400002098000020B3
:102FD00010B51548007830B101280ED0022818D05D
:102FE00003281ED11CE001F03BFC01200E490870B3
:102FF000FDF71CFD0D49086013E0FDF717FD0B49B7
:103000000968401AB0F5FA6F02D302200649087029
:1030100007E007A0FFF770FD03200349087000E0F8
:1030200000BF00BF10BD00009400002098000020E9
:1030300047524159205343414C4520544553540075
:103040000020024908700249086070479C00002077
:10305000A00000202DE9FC475148007830B101283C
:103060007ED002287DD003287CD194E04DA0FFF7CC
:1030700043FDFEF78FFA0446FEF786FA0546204622
:1030800004EBD0714E10284605EBD0714F10002094
:103090004FF478413C235022CDE900102821142020
:1030A000FEF760FA01204FF4FC613C235022CDE989
:1030B000001028216E20FEF755FA002007F12802A3
:1030C00091B2A6F13C02009090B21F231E22FEF79F
:1030D00025FA012007F1280291B206F13C02009086
:1030E00090B24FF6E0731E22FEF718FA47F6FF7013
:1030F0000090A5F1280083B2A4F1140082B2A5F1DA
:10310000280081B21420FEF71BFA4FF61F00A046DC
:1031100004EBD8714A10A14604EBD9710090481015
:10312000A5F13C018BB25021FEF70AFA4FF6FF7071
:103130000090681E83B2601E82B200210846FEF72E
:10314000FFF94FF6FF700090601E82B2681E81B2D8
:1031500000231846FEF7F4F901201149087002E037
:1031600006E011E018E0FDF761FC1149086013E08A
:10317000FDF75CFC0E490968401AB0F5FA6F02D3FE
:1031800002200749087007E006A0FFF7B5FC0320FE
:103190000349087000E000BF00BFBDE8FC870000E5
:1031A0009C0000205348415045532054455354003F
:1031B000A000002000200249087002490860704702
:1031C0008C0000209000002070B523480478052C66
:1031D00000D370BD2148007830B1012811D00228F9
:1031E0001BD0032834D132E01D4931F81400FEF71A
:1031F00085F9012019490870FDF718FC1949086084
:1032000026E0FDF713FC17490968401AB0F5FA6F7C
:1032100002D30220114908701AE013A5052C0ED222
:10322000DFE804F0030507090B0010A507E012A56D
:1032300005E015A503E017A501E01AA500BF00BF32
:103240002846FFF759FC03200449087000E000BF3E
:1032500000BF00BFBDE700007D0000208C00002003
:10326000B86B000890000020000000005245442088
:1032700053435245454E0000475245454E20534367
:103280005245454E00000000424C554520534352E4
:1032900045454E0057484954452053435245454EF5
:1032A00000000000424C41434B2053435245454EE1
:1032B00000000000002002490870024908607047C1
:1032C000A4000020A800002030B587B0374800785F
:1032D00030B1012853D002285DD0032863D161E0CA
:1032E00033A0FFF709FC322414254FF4FC600023BF
:1032F00034A2214600900A20FEF774F92C444FF6C0
:10330000E070002333A2214600900A20FEF76AF9FC
:103310002C4447F6FF70002333A2214600900A2078
:10332000FEF760F947F6FF700021052343F23902EA
:10333000CDE9001021465020FEF736F92C444FF617
:103340001F0000232BA2214600900A20FEF74AF915
:103350004AF6CD3229A102A800F05CF94FF61F0011
:10336000002302AA214600904620FEF73BF90120E7
:103370000E490870FDF75AFB2249086013E0FDF77B
:1033800055FB20490968401AB0F5FA6F02D30220B4
:103390000649087007E006A0FFF7AEFB03200349CB
:1033A000087000E000BF00BF07B030BDA4000020DF
:1033B0005445585420444953504C41592054455386
:1033C0005400000048656C6C6F2053544D3332211B
:1033D000000000004C434420546573742046726121
:1033E0006D65776F726B00004E756D6265723A2085
:1033F000000000004865783A2030780025303458C5
:1034000000000000A800002021B1828942F400528F
:10341000828104E082894DF6FF731A4082817047F1
:1034200002460020B1F5007F00D100BF13880B4099
:103430000BB1012000E000207047F0B503460024E6
:1034400000260025002040F66A17B94200D100BFCF
:103450001846C1F3421401F01F06012707FA06F5CA
:10346000012C01D10C3004E0022C01D1103000E01D
:1034700014301AB107682F43076002E00768AF43B2
:103480000760F0BD2DE9F04786B005460E460024E2
:10349000A24600BFA1460027B08900B100BF2F4659
:1034A0002C8A4CF6FF700440F08804432C82AC89CF
:1034B0004EF6F3100440B0883189084371890843FF
:1034C0000443AC81AC8A4FF6FF400440B08904430A
:1034D000AC8201A8FEF75CFA1F48874202D1DDF8F2
:1034E00010A001E0DDF80CA0A88900F4004040B174
:1034F0000AEBCA0000EB0A1031684900B0FBF1F892
:1035000007E00AEBCA0000EB0A1031688900B0FB43
:10351000F1F86420B8FBF0F004012009642101FBFC
:103520001089A88900F4004040B1322000EBC900A6
:10353000B0FBF1F000F00700044308E0322000EB9C
:1035400009106421B0FBF1F000F00F0004432C815E
:1035500006B0BDE8F087000000380140C1F3080262
:103560008280704700B585B001218803FEF700FA1C
:1035700001210420FEF7FCF94FF40070ADF81000B3
:1035800018208DF8130003208DF8120004A91648A6
:10359000FDF7B4F94FF48060ADF8100004208DF809
:1035A000130004A91048FDF7A9F94FF4E130009089
:1035B0000020ADF80400ADF80600ADF80800ADF845
:1035C0000C000C20ADF80A0069460848FFF75AFFC6
:1035D000012240F225510548FFF72FFF0121034842
:1035E000FFF712FF05B000BD0008014000380140A0
:1035F00000BFFEE70FB4054B10B503A9044A0298BB
:1036000000F02CF810BC5DF814FB000071500008AD
:103610001C0100200FB4084B10B504A902AA03989E
:1036200000F01CF8044602A9002000F042FA2046EF
:1036300010BC5DF814FB0000B33A000802E008C8B3
:10364000121F08C1002AFAD170477047002001E01C
:1036500001C1121F002AFBD1704700002DE9FF4F66
:103660008DB00F460546002606E025280BD0DDE983
:103670000F1290476D1C761C28780028F5D111B0E8
:103680003046BDE8F08F0024A246A1460122E94958
:1036900000E0044315F8013F203B02FA03F0084222
:1036A000F7D128782A2810D06FF02F022878A0F1BF
:1036B0003001092914D80AEB8A0102EB410144F0D8
:1036C000020400EB010A6D1CF0E701CF5FEA000A7B
:1036D00003D544F40054CAF1000A44F002046D1CFE
:1036E00028782E2817D115F8010F44F004042A2851
:1036F0000ED06FF02F022878A0F1300109290AD8E6
:1037000009EB890102EB410100EB01096D1CF2E7B5
:1037100057F8049B6D1C28786C280FD006DC4C28C9
:1037200017D068280DD06A2814D104E0742810D06E
:103730007A280FD10DE044F400140AE044F4801418
:1037400001E044F440146978814202D104F5801408
:103750006D1C6D1C28786E281ED00CDC632830D0C0
:1037600004DC00288BD0582811D19FE0642867D052
:1037700069280CD164E073282DD004DC6F2872D046
:10378000702804D194E075286ED078286DD0DDE9DA
:103790000F129047761C4BE1C4F30250022806D06A
:1037A000032809D0042801CF09D0066040E101CFE9
:1037B000F117C0E900613BE101CF068038E10670F6
:1037C00036E117F8040B8DF8000000208DF8010099
:1037D000EB46012003E057F804BB4FF0FF306107D0
:1037E0004FF0000102D40DE008F10101884649457F
:1037F0000FDA8045F8DB1BF808100029F4D108E047
:1038000008F1010188468142FADB1BF80810002903
:10381000F6D1DDE90F23AAEB08008146214600F02E
:1038200031F9304400EB080604E0DDE90F121BF823
:10383000010B9047B8F10108F7D221464846F2E063
:103840000A21C4F302524FF0000B0891022A04D05F
:1038500001CFC117032A09D00AE0FF1D27F007078F
:10386000F7E8020108E02CE01EE01FE000B2C117FB
:10387000042A01D140B2C117021E71F1000206DA1A
:103880000023D0EB030063EB01012D2202E02205AF
:1038900004D52B228DF82420012203E0E20701D079
:1038A0002022F7E7904653E00A210BE0102109E0BF
:1038B00010214FF0000B44F004044FF00809089168
:1038C00003E008214FF0000B0891C4F30252022AD2
:1038D00004D001CF0021032A06D006E0FF1D27F007
:1038E0000707F7E8020103E080B2042A00D1C0B262
:1038F0004FF0000822072BD52A78702A07D0DDF870
:1039000020C08CF0100C5CEA0B0C05D00EE04022BD
:103910008DF82420012208E050EA010306D030236C
:103920008DF824308DF8252002229046089B83F0E4
:10393000080353EA0B030BD150EA010201D16207DD
:1039400006D530228DF824204FF00108A9F1010995
:103950002A78582A04D038A20B9208AA0A920BE0BF
:103960003AA2F9E75B46089AFCF770FC0B9B9B5C5C
:103970000A9A521E0A92137050EA0102F2D10A9872
:10398000ADEB000000F1200B600702D524F4803479
:1039900001E04FF00109D94502DDA9EB0B0000E081
:1039A000002000EB0B0141440890AAEB010AE00360
:1039B00006D4DDE90F232146504600F063F80644A3
:1039C0004FF0000908E009A911F80900DDE90F121C
:1039D000904709F10109761CC145F4DBE0030CD5E1
:1039E000DDE90F232146504600F04CF8064404E080
:1039F000DDE90F1230209047761C0899481E089088
:103A00000029F5DC08E00A980A990078491C0A9117
:103A1000DDE90F129047761CBBF10001ABF1010B01
:103A2000F1DC21465046DDE90F2300F019F8064489
:103A30006D1C21E609280100303132333435363728
:103A400038396162636465660000000030313233EA
:103A5000343536373839414243444546000000008A
:103A60002DE9F041044600251E461746880404D47B
:103A700005E039462020B0476D1C641EF9D5284664
:103A8000BDE8F0812DE9F041044600251E46904630
:103A9000C80301D5302700E02027880404D505E0BD
:103AA00041463846B0476D1C641EF9D52846BDE82E
:103AB000F0810A68531C0B601070704770B50446A3
:103AC0000D46607801232A4604F1300100F030FEF3
:103AD00008B1032070BD94F82E1294F82F0241EA29
:103AE00000204AF65521884201D00220F2E794F8DE
:103AF0006900010694F8680041EA004194F8670003
:103B000041EA002094F86610084320F07F400E49F7
:103B1000884201D10020DDE794F88500010694F881
:103B2000840041EA004194F8830041EA002094F8BF
:103B30008210084320F07F400349884201D10020D1
:103B4000C8E70120C6E7000046415400024600E0F5
:103B5000521C107810B110788842F9D11078704753
:103B60002DE9F74F88B00898006801900198007817
:103B700030380790079809280AD8019840783A28E1
:103B800006D10198801C019008990198086001E015
:103B900000200790079818B10B200BB0BDE8F08FFC
:103BA000D049079851F82040099804600CB90C20BE
:103BB000F3E7207878B1607800F004FE804608F0E2
:103BC000010040B90A9820B108F0040008B10A20A9
:103BD000E3E70020E1E7002020700798607060783C
:103BE00000F095FD804608F0010008B10320D4E7FD
:103BF0000A9820B108F0040008B10A20CDE74FF080
:103C0000000B59462046FFF759FF054600BF012D1E
:103C100021D14FF0000ABAF1000F03D0AAF1010040
:103C200000F0FF0A4FF4DF7000EB0A1104F13000DE
:103C30000F18387978B1F87A0106B87A41EA00416C
:103C4000787A41EA0020397A40EA010B5946204649
:103C5000FFF734FF0546032D01D101209DE70DB18B
:103C60000D209AE73B20015D94F83C0041EA0020DA
:103C7000B0F5007F01D00D208FE74620015D94F85C
:103C8000470041EA0029B9F1000F0ED194F857001E
:103C9000010694F8560041EA004194F8550041EAC3
:103CA000002094F8541040EA0109C4F81C90402008
:103CB000065DE670012E03D0022E01D00D206CE7C8
:103CC00009FB06F93D20005D0646A07016B1701E86
:103CD000304008B10D2060E74120015D94F84200BA
:103CE00041EA00202081207A00F00F0008B10D2069
:103CF00053E74320015D94F8440041EA0020069018
:103D0000069870B994F85300010694F8520041EAFD
:103D1000004194F8510041EA002094F85010084303
:103D200006903E20015D94F83F0041EA0020029099
:103D3000029808B90D2030E702984844218900EB29
:103D400011100590DDE90501814201D20D2024E723
:103D5000DDE90510401AA178B0FBF1F00490049859
:103D600008B90D2019E7012540F6F671049888423C
:103D700000D302254FF6F6710498884200D303253C
:103D80000498801CA06105985844A0620298584489
:103D90002062032D16D1208908B10D20FDE694F88C
:103DA0005F00010694F85E0041EA004194F85D006E
:103DB00041EA002094F85C1008436062A06980002A
:103DC000039014E0208908B90D20E6E6206A4844F3
:103DD0006062022D02D1A069400007E0207E00F061
:103DE0000100A16901EB410100EB51000390E16981
:103DF000039800F2FF10B1EB502F01D20D20CCE65A
:103E00004FF0FF3020610020E060032D5CD1607135
:103E100094F8601094F8610041EA00205844606111
:103E20006078012304F13001626900F081FCE8BB95
:103E300094F82E1294F82F0241EA00204AF65521F8
:103E4000884241D13320005D01063220005D41EA05
:103E500000413120005D41EA002094F83010084311
:103E60002149884230D194F81702010694F81602CD
:103E700041EA004194F8150241EA002094F8141236
:103E800008431A4988421FD194F81F02010694F88A
:103E90001E0241EA004194F81D0241EA002094F814
:103EA0001C120843E06094F81B0200E00CE00106DD
:103EB00094F81A0241EA004194F8190241EA0020FC
:103EC00094F8181208432061257009480088401CA6
:103ED00080B207490880E0800020E062207100BFC6
:103EE0005BE60000B40000205252614172724161F1
:103EF000B80000200246891E9069801E884201D8C1
:103F0000002070479378906A01FB0300F9E70000F6
:103F10002DE9F04705460C46207820F04000401E71
:103F200000EB800101EBC00600274FF0010800BF45
:103F30001A48C05D205C1949C95D2144497840EAAE
:103F40000129B8F1000F10D0484600F0E5FF804687
:103F5000FF2E07D23146761C35F8110000F0DCFF49
:103F6000404508D00020BDE8F0874FF6FF7081453E
:103F700001D00020F7E7781C07460D28D8D3207819
:103F800000F0400038B1B8F1000F04D035F8160049
:103F900008B10020E7E70120E5E70000C26B000858
:103FA0004FF0C041088070472DE9F047044689462C
:103FB000B9F1000F06D1E76817B1A069B84211D86E
:103FC00001270FE04946204601F0C3F80646022EBD
:103FD00002D20120BDE8F087A069B04201D9304685
:103FE000F8E74F463D4600BF6D1CA069A84204D8C3
:103FF0000225BD4201D90020ECE72946204601F008
:10400000A8F8064606B909E0701C08B1012E01D1D6
:104010003046DFE7BD42E7D10020DBE700BF6FF0AD
:1040200070422946204601F0FDFB8046B8F1000FA2
:1040300008D1B9F1000F05D02A464946204601F0C3
:10404000F1FB8046B8F1000F09D1E5602069401C02
:1040500068B12069401E20610120607107E0B8F15D
:10406000010F02D14FF0FF3000E001200546284645
:10407000B0E700002DE9F34F83B081460498006853
:10408000019002E00198401C0190019800782F28CF
:10409000F8D0019800785C28F4D0D9F81CA000254D
:1040A0002F4600BF38467F1C01990C5C202C03DB97
:1040B0002F2C01D05C2C00D132E0FF2D03D3062041
:1040C00005B0BDE8F08FE4B2812C13DBE0B2FE282E
:1040D00010DC38467F1C01990E5C402E01DB7E2EE1
:1040E00005DD802E01DBFE2E01DD0620E8E706EB74
:1040F000042084B20121204600F0D0FE04460CB911
:104100000620DDE7802C06DA214671A0FFF71EFDB0
:1041100008B10620D4E728466D1C2AF81040C1E7F4
:1041200000BF0198C11904980160202C01DA042015
:1041300000E00020804608E0681E3AF81040202C7D
:1041400002D02E2C00D002E06D1E002DF4D100BF55
:104150000DB90620B4E700202AF815000B22202113
:10416000D9F8180001F0D8F8002700E07F1C3AF8D1
:1041700017002028FAD03AF817002E28F6D00FB1F1
:1041800048F0030800E06D1E25B1681E3AF81000E3
:104190002E28F8D10020064602904FF0080B00BFF1
:1041A00038467F1C3AF8104004B963E0202C03D055
:1041B0002E2C04D1AF4202D048F00308F0E7029859
:1041C000584501D2AF4214D1BBF10B0F02D148F0D8
:1041D00003084FE0AF4201D048F00308AF4200D9D6
:1041E00048E02F46082002904FF00B0BB006060E59
:1041F000D6E7802C09DB204600F08EFE00210090DF
:1042000000F04CFE044648F00208FF2C11DDABF133
:1042100001000299884204D848F00308CDF808B09C
:10422000BEE72212D9F818300298411C02911A54A4
:1042300019E024B1214629A0FFF788FC18B15F24BA
:1042400048F003080FE0412C04DB5A2C02DC46F056
:10425000020608E0612C06DB7A2C04DC46F001063D
:10426000A4F1200084B2D9F818300298411C0291C0
:104270001C5495E700BFD9F818000078E52803D151
:104280000520D9F818100870BBF1080F01D1B0064D
:10429000060E06F00C000C2803D006F003000328DD
:1042A00001D148F0020808F0020058B906F00300F6
:1042B000012801D148F0100806F00C00042801D1B3
:1042C00048F00808D9F8180080F80B800020F7E6BD
:1042D000222A3A3C3E3F7C7F000000002B2C3B3DD5
:1042E0005B5D00000149088070470000000002602B
:1042F0002DE9F04704460021204600F0BAF90746B0
:1043000017B13846BDE8F0874FF0FF09CA4600BF35
:104310002169206801F00AF8074607B154E0656991
:104320002E780EB904274FE0E87A00F03F08E52E1A
:1043300005D008F0080028B1B8F10F0F02D04FF0F7
:10434000FF093AE0B8F10F0F1CD1E069A0B306F005
:10435000400030B195F80DA026F04006B146E08847
:1043600020844E450AD1687B504507D12946E06933
:10437000FFF7CEFD10B1A9F1010000E0FF2000F031
:10438000FF091AE0B9F1000F05D1284601F0D6FB6C
:10439000504500D118E04FF0FF094FF6FF70208420
:1043A000A069C07A00F0010030B90B222846A1694B
:1043B00000F092FF00B907E0FFE70021204600F07F
:1043C00006F80746002FA3D000BF38469AE72DE92C
:1043D000F0410446884600BFE088401C86B20EB11A
:1043E000206910B90420BDE8F08106F00F00002814
:1043F0006FD12069401C2061E06828B920680089DD
:10440000B04266DC0420EEE720688078401E00EAB7
:10441000161000285DD1E168206800F09AFE05467C
:10442000012D01D80220DEE7681C08B90120DAE777
:1044300020688069A84246D8B8F1000F01D1042055
:10444000D1E7E1682068FFF7AFFD05460DB9072009
:10445000C9E7012D01D10220C5E7681C08B9012078
:10446000C1E70021206800F061FF08B10120BAE730
:10447000216801F130004FF40072002100F04CFF80
:1044800029462068FFF736FD2168C862002710E042
:104490000120216808710021206800F047FF08B161
:1044A0000120A0E72068C06A401C2168C862781C0F
:1044B000C7B220688078B842EADC2068C06AC01BB6
:1044C0002168C86200BFE56029462068FFF712FD39
:1044D0002061E6802068303006F00F0100EB4110CB
:1044E000606100207FE72DE9F04F85B00446D4F8E5
:1044F0001880D4F81CB00C22414601A800F0FFFE41
:1045000000BF9DF80F0000F0010030B3002088F8D4
:104510000B00E06101270DE03B465A4601A94046E9
:1045200000F0B8FD2046FFF7E3FE054605B103E0C5
:10453000781C87B2642FEFDB00BF642F03D1072004
:1045400005B0BDE8F08F042D01D02846F8E79DF8AE
:104550000F0088F80B00C4F81CB09DF80F0000F0A5
:10456000020070B1002601E0701C86B23BF8160014
:104570000028F9D106F119000D2190FBF1F086B267
:1045800000E001260021204600F073F805460DB139
:104590002846D5E700200746049000BF216920681F
:1045A00000F0C4FE054605B119E0606990F800907E
:1045B000B9F1E50F02D0B9F1000F08D10FB9E088C9
:1045C0000490781C80B20746B04201D107E0002772
:1045D00001212046FFF7FBFE0546002DDED000BF7F
:1045E0004DBB012E27DD2046049900F042F8054618
:1045F0000DBBA06901F0A2FA0090701E86B200BF48
:104600002169206800F092FE054605B112E0F2B281
:104610006169E069009B00F09BFC01202168087142
:1046200000212046FFF7D3FE05461DB9701E80B25B
:10463000061EE5D100BFD5B92169206800F076FEDD
:104640000546A5B9D4F814A020220021504600F058
:1046500063FE0B225046A16900F051FEA069C07AAA
:1046600000F018008AF80C00012021680871284623
:1046700066E72DE9F04104460E46E680A568012D67
:1046800003D020688069A84202D80220BDE8F081EA
:104690002DB920680078032801D12068456A65B9E2
:1046A000E56020680089B04201DC0220EEE7206866
:1046B000406A00EB1610206120E020688078070136
:1046C00012E02946206800F044FD0546681C08B940
:1046D0000120DBE7022D03D320688069A84201D8BE
:1046E0000220D3E7F01B86B2BE42EADAE560294633
:1046F0002068FFF7FFFB00EB1610206120683030C8
:1047000006F00F0100EB411060610020BEE770B5BC
:1047100005460DB1012070BDFDF748FD04460CB102
:104720000120F8E70020F6E703460020704700006C
:104730002DE9F04180460D4614461E4605F0030063
:10474000E8B1002718E0780200EB44214FF4007232
:104750001B48FDF7F1FEFEF707F800BFFDF717FD58
:104760000028FBD14FF4007215492846FBF74AFD9B
:1047700005F50075781CC7B2B742E4DB1DE0012ED9
:104780000EDD610233464FF400722846FDF742FF0A
:10479000FDF7EAFF00BFFDF7FAFC0028FBD10CE0B3
:1047A00061024FF400722846FDF7C6FEFDF7DCFFFC
:1047B00000BFFDF7ECFC0028FBD10020BDE8F08134
:1047C0003C1B002001460020704700002DE9F0410D
:1047D00080460D4614461E4605F00300E8B100274A
:1047E00018E04FF4007229461C48FBF70BFD7802D5
:1047F00000EB44214FF400721848FDF7EDFFFDF780
:10480000CDFF00BFFDF7C3FC0028FBD105F5007507
:10481000781CC7B2B742E4DB1DE0012E0EDD610259
:1048200033464FF400722846FEF744F8FDF7B6FF12
:1048300000BFFDF7ACFC0028FBD10CE061024FF497
:1048400000722846FDF7C8FFFDF7A8FF00BFFDF77F
:104850009EFC0028FBD10020BDE8F0813C1B00201D
:1048600070B54FF4A073F02200210846FCF72CFC31
:104870002C20FFF795FB002400BF00BF00BF13E012
:1048800000250EE0002609E0E102E200920841EA7C
:104890004211214388B2FCF773FD761CF02EF3D34E
:1048A0006D1C0A2DEED3641C202CE9D370BD70B5AD
:1048B0000446204600F095FA05460DB90020206018
:1048C000284670BD2DE9F04704460E46A1882068B1
:1048D00001F036FC8246BAF1000F02D05046BDE826
:1048E000F087A07900F0800008B10220F7E7E068C7
:1048F000B04204D2A07900F0020000B9E668D4F812
:1049000008904FF00008C4F80880002E77D0206887
:1049100080784702B9F1000F11D0701EB0FBF7F19B
:10492000A9F10100B0FBF7F0814208D3A9F1010021
:10493000791E8843A060A068361A656918E0256969
:10494000ADB900212068FFF72FFB0546012D05D1E9
:10495000A07940F08000A0710220C0E7681C28B94F
:10496000A07940F08000A0710120B8E72561656161
:10497000002D44D029E0A07900F0020038B129468A
:104980002068FFF711FB054635B93E461FE0294672
:10499000206800F0DEFB0546681C28B9A07940F0CD
:1049A0008000A07101209AE7012D03D92068806959
:1049B000A84205D8A07940F08000A07102208EE7BF
:1049C0006561A0683844A060F61BBE42D3D800BF22
:1049D000A0683044A060C6F3080068B1294620688A
:1049E000FFF788FA8046B8F1000F06D1A07940F0B1
:1049F0008000A071022072E701E008EB56282089B0
:104A0000C0F3080050B3A069404527D0A07900F05A
:104A1000400090B121684878012304F12401A26983
:104A2000FFF7D4FE28B1A07940F08000A0710120EA
:104A300055E7A07920F04000A07121684878012353
:104A4000424604F12401FFF773FE28B1A07940F03B
:104A50008000A071012042E7C4F81880D4E9020167
:104A6000884205D9A068E060A07940F02000A071DC
:104A7000504634E70246012A01DB0B207047074805
:104A800050F822300BB10020187009B100200870D6
:104A9000024840F822100020F0E70000B400002097
:104AA0002DE9F743ADF50C7D05461646002028603C
:104AB00006F01F0626F0010283A98DA8FFF750F823
:104AC000074680A88990CDF828D227B983A88D9968
:104AD00000F07EFA0746889C0FB904B9062706F055
:104AE0001C00002858D04FB1042F03D183A8FFF732
:104AF000FAFC074646F00806889C09E0E07A00F0D8
:104B0000110008B1072703E006F0040000B10827F0
:104B1000002F40D106F0080000283CD000F08BFBAD
:104B2000804684F80E804FEA1821E1734FEA18415D
:104B300021744FEA186161740020E072207700212F
:104B40006177A177E177A17EE07E41EA0021227DB5
:104B5000607D42EA002041EA00490020A076002161
:104B6000E17620756175012083990871B9F1000F14
:104B700011D08398D0F82C804946839800F0A8FF84
:104B8000074647B9A9F101008399C8604146839857
:104B900000F0CCFB07460EE06FB9E07A00F01000A1
:104BA00008B1042707E006F0020020B1E07A00F027
:104BB000010000B1072747B906F0080008B146F028
:104BC00020068398C06AE8612C62F7B9AE71A17EB5
:104BD000E07E41EA0021227D607D42EA002041EA38
:104BE00000402861E07F0106A07F41EA0041607F2C
:104BF00041EA0020217F0843E8600020A860A86106
:104C0000839828608398C088A88038460DF50F7D6A
:104C1000BDE8F0832DE9FF4F83B0044615469A4660
:104C2000DDF810B00020CAF80000A188206801F06B
:104C300087FA0290029818B1029807B0BDE8F08F89
:104C4000A07900F0800008B10220F6E7A07900F01A
:104C5000010008B90720F0E7D4E90210401A0090DB
:104C60000098854200D9009DB6E02089C0F3080075
:104C700000287DD120688078401EA16800EA51207C
:104C800000F0FF09B9F1000F1DD1A06810B920692B
:104C9000019004E06169206800F05BFA01900198DE
:104CA000022805D2A07940F08000A0710220C4E75C
:104CB0000198401C28B9A07940F08000A071012023
:104CC000BBE70198606161692068FFF713F9064648
:104CD0002EB9A07940F08000A0710220ADE74E44CB
:104CE0004FEA5528B8F1000F2DD009EB08002168D4
:104CF0008978884203D920688078A0EB090808F0F9
:104D0000FF032168487832465946FFF711FD28B164
:104D1000A07940F08000A07101208EE7A07900F01A
:104D2000400068B1A069801B404509D2A169891B78
:104D30000BEB41204FF4007204F1240100F0DFFA84
:104D40004FEA48273EE0A069B04227D0A07900F0A2
:104D50004000A0B121684878012304F12401A26930
:104D6000FFF734FD38B1A07940F08000A07100E079
:104D700015E0012061E7A07920F04000A0712168D2
:104D800048780123324604F12401FFF7D1FC28B111
:104D9000A07940F08000A07101204EE7A661208933
:104DA000C0F30800C0F50077AF4200D92F46208934
:104DB000C0F3080204F1240011183A46584600F0E6
:104DC0009EFA00BFBB44A0683844A060DAF8000037
:104DD0003844CAF80000ED1B002D7FF446AF0020D8
:104DE0002BE72DE9F0410446A188206801F0A8F9DD
:104DF0000746002F4FD1A07900F0200000284AD0AC
:104E0000A07900F0400078B121684878012304F1CE
:104E10002401A269FFF7DAFC10B10120BDE8F0819E
:104E2000A07920F04000A071E169206800F07EFACE
:104E30000746002F2FD1256AE87A40F02000E8725B
:104E4000207B2877A089010A6977E068010CA9779F
:104E5000E068010EE977207CA876208A010AE976CD
:104E60002069000C28752069010E697500F0E3F9CE
:104E70000646AE75310AE975310C2976310E697630
:104E8000A07920F02000A07101202168087120681D
:104E900000F064FE07463846C0E700002DE9F04107
:104EA00002460F46802A01DA10462FE01FB1184B48
:104EB00045F2205602E0174B45F2205600251024FB
:104EC00016E0A6EB050C0CEBDC7805EB68014FEA6D
:104ED000410C33F81CC0944500D10BE04FEA410C63
:104EE00033F81CC0944501DA0D4600E00E46641EFE
:104EF000002CE6D100BF34B14FF0010C0CEB410C9B
:104F000033F81CC001E04FF0000C6046BDE8F081B2
:104F100054C00108D06B00080246002100E0491C83
:104F2000094830F8110020B1074830F811009042CC
:104F3000F5D1054830F8110018B1044830F81100D7
:104F400070471046FCE70000D8140308B8160308A1
:104F5000F0B504461D464D730F27CF7200270F731F
:104F60008F76BC4681F81BC0571E07EB870C0CEBF5
:104F7000C706002738463B4600BF4FF6FF77B842CA
:104F800003D03746761C34F81700DFF840C01CF811
:104F900003C001F80C000712DFF830C01CF803C092
:104FA0008C448CF8017008B94FF6FF705F1C3B46CB
:104FB0000D2FE2D34FF6FF77B84202D034F81670C7
:104FC0000FB942F040020A70F0BD0000C26B000849
:104FD0002DE9F3410446019800782F2803D0019869
:104FE00000785C2802D10198401C01900020A0604C
:104FF00001980078202807D200212046FFF739FBCE
:105000000646002060612FE000BF01A92046FFF79F
:1050100031F8064606B126E02046FFF769F9064654
:10502000A069C77A46B1042E00D01CE000BF07F08B
:10503000040000B9052616E007F0040000B112E0F4
:105040006569E87A00F0100008B905260BE0A97E32
:10505000E87E41EA00212A7D687D42EA002041EA9B
:105060000040A060D1E700BF3046BDE8FC810000F1
:1050700070B504460D46E1B20548FEF76FFA00BF71
:1050800080210348FEF7CCF90028F9D0204670BDF6
:10509000003801402DE9FC4707468A4690461C46E9
:1050A0000B225146384600F02AF9052C0BDD00BFD3
:1050B000601000EBC43138F8022B881884B2B8F8BD
:1050C00000000028F4D1072600BF2046E11704EBBA
:1050D00011710911A4EB0111303101F0FF09B9F18F
:1050E000390F03DD09F1070000F0FF093046761E95
:1050F0000DF800902046E11704EB1171C1F30F1475
:10510000002CE2D17E200DF8060000250BE0785D32
:10511000812807DB785DFE2804DC701EA84200D1E0
:1051200006E06D1C6D1CB54202D2785D2028EED1E0
:1051300000BF00BF082E04D23046761C1DF80000C8
:1051400000E0202029466D1C7854082DF2D3BDE8DC
:10515000FC872DE9F04105460C46022C02D3A869D4
:10516000A04202D80120BDE8F0812878012804D0AF
:1051700002282CD003285AD13DE0274607EB5707D9
:10518000286A00EB5721284600F0D0F800B14EE025
:10519000C7F3080105F1300010F801807F1C286A70
:1051A00000EB5721284600F0C1F800B13FE0C7F3FB
:1051B000080105F13000405C48EA002804F00100D5
:1051C00010B14FEA1810CEE7C8F30B00CBE7286AFE
:1051D00000EB1421284600F0A9F800B127E040F2C6
:1051E000FF1000EA440105F130000E1830787178A4
:1051F00040EA0120B7E7286A00EBD411284600F006
:1052000095F800B113E040F2FF1000EA840105F1C7
:1052100030000E18F0780006B17840EA014071784D
:1052200040EA01203178084320F070409BE700BF3E
:105230004FF0FF3097E700207047000000BF00BF2D
:105240004FF44070FCF77AFBFEF78CF9FDF7D6FBC4
:10525000FDF724FD09A0FEF7CDF913A0FEF7CAF96A
:1052600017A11AA0FEF7C6F904A0FEF7C3F9FDF7CF
:105270007DFD00F0ADFE00BFFEE700003D3D3D3D81
:105280003D3D3D3D3D3D3D3D3D3D3D3D3D3D3D3D4E
:105290003D3D3D3D3D3D3D3D3D3D3D3D3D3D3D3D3E
:1052A0003D3D3D3D0A00000053544D3332E6B58B81
:1052B000E8AF95E69EB6E590AFE58AA85C6E000083
:1052C0004672656552544F53000000004D6F64658F
:1052D0003A2025730A000000F0B503461C460D462F
:1052E000002000BF161EA2F1010207D014F8017BB6
:1052F00015F801CBA7EB0C06301EF3D0F0BD70B54E
:1053000003460C4603E014F8015B03F8015B151E2D
:10531000A2F10102F7D170BD30B5034601E003F8F8
:10532000011B141EA2F10102F9D130BD2DE9F0419B
:1053300004460D46E66AAE422FD0207908B3607865
:105340000123324604F13001FFF740FA10B1012089
:10535000BDE8F08100202071D4E907100844B04274
:105360000FD9E7780AE0E069064460780123324605
:1053700004F13001FFF72AFA781EC7B2012FF2DCE0
:1053800000BF55B1607801232A4604F13001FFF7D0
:10539000CFF908B10120DBE7E5620020D8E7000083
:1053A0002DE9F04105460E46164807681648006884
:1053B000001D00F038FC681C38B936B1124801688D
:1053C000091D124800F06DFC1AE07C190E480068B7
:1053D0004460BC4207D20C480168091D0C480068B3
:1053E00000F045FC0CE008480168091D0948006808
:1053F00000F03DFC08480068844201D20648046081
:10540000BDE8F081D0000020BC000020F01D00208D
:10541000C4000020C0000020EC00002010B50446AD
:1054200000F04CFC22480068401C214908602148DB
:10543000006840B91F4804600846006801280DD183
:1054400000F03CF90AE01C48006838B919480068C7
:10545000C06AE16A884201D81648046017480068AB
:10546000401C164908601649E06A0968884202D95A
:105470001349E06A0860E16A01EB8101114A02EB1D
:105480008100211D00F00DFC00F056FC0A48006868
:1054900068B108480068C06AE16A884207D24FF0E4
:1054A000805009490860BFF34F8FBFF36F8F10BD65
:1054B000CC000020BC000020D8000020E800002024
:1054C000D40000203C1D002004ED00E070B523E076
:1054D00000F0D4FD1348006808B9012000E0002066
:1054E000054600F097FFBDB900F0E8FB0D48C06825
:1054F000C468201D00F097FB0B480068401E0A4955
:1055000008600A480068401E0849086000F014FC62
:10551000204600F00DF800BF044800680028D7D1ED
:1055200070BD0000DC1D0020CC000020C800002061
:1055300010B50446206B00F031FC204600F02EFC34
:1055400010BD000030B54FF40C43174800F00704BD
:105550002CB1C01D20F00700134C041B1B1B02467E
:10556000124C22600024114D6C60D018083820F0D5
:1055700007000F4C206000240D4D2D686C600C4D11
:105580002D682C601146441A4C60094C24680C604C
:10559000084D4C682C60084D4C682C604FF000445E
:1055A000064D2C6030BD0000041E0020F8000020D5
:1055B0000001002008010020040100200C0100204F
:1055C00000BFFFF783FF064800680128F9D94FF0B4
:1055D000805004490860BFF34F8FBFF36F8FF0E72F
:1055E0003C1D002004ED00E02DE9F05F82460E46F0
:1055F00017469B46DDF828800C9CB900A522206B3D
:10560000FAF712FE781E216B01EB800929F00709D9
:1056100009F0070008B9012000E0002028B940F295
:105620002B321BA121A0FDF7E5FF002507E0715DEE
:1056300004F134004155705D00B902E06D1C102D7D
:10564000F5D300BF002143200155B8F1050F01D368
:105650004FF00408C4F82C80201D00F005FB04F175
:10566000180000F001FB2461C8F10500A06164622C
:105670000020606484F848005A465146484600F0CD
:1056800015FA20600B9808B10B980460BDE8F09FF4
:105690002E2E5C2E2E5C4672656552544F535C7301
:1056A00072635C7461736B732E6300004572726F7A
:1056B000723A25732C25640D0A00000010B50024F1
:1056C00007E004EB84010F4A02EB810000F0BFFA0F
:1056D000641C052CF5D30C4800F0B9FA0B4800F017
:1056E000B6FA0B4800F0B3FA0A4800F0B0FA0A48DC
:1056F00000F0ADFA04480949086004480849086008
:1057000010BD00003C1D0020A01D0020B41D002085
:10571000C81D0020DC1D0020F01D0020C00000205E
:10572000C400002010B50146164800E00068036878
:105730008B42FBD30246436813448B4204D1436837
:105740004C682344436001460A464B68134404688E
:10575000A34211D10C4C03682468A34208D04B68C3
:105760000468646823444B6003681B680B6005E0B1
:10577000054B1B680B6001E003680B60884200D09A
:10578000016010BDF8000020000100200A490968EE
:10579000096809B9012100E0002121B14FF0FF3172
:1057A000064A116006E004490968C968C868034AE6
:1057B0004168116070470000C0000020EC0000202C
:1057C0000B480068401C08B9012000E0002020B907
:1057D000F42208A10FA0FDF70DFF00BF502080F3B9
:1057E0001188BFF34F8FBFF36F8F00BF00BFFEE77D
:1057F000100100202E2E5C2E2E5C467265655254E0
:105800004F535C706F727461626C655C706F727420
:105810002E6300004572726F723A25732C25640D59
:105820000A0000002DE9F04705460E461746022EF5
:1058300002D3A869B04202D84FF002088AE0287863
:10584000012804D0022841D003287DD154E0B1467C
:1058500009EB5909286A00EB59212846FFF766FD34
:105860008046B8F1000F00D071E0C9F3080105F1DE
:1058700030000C1806F0010020B1F9B2207861F375
:105880001F1000E03846207009F10109012028713D
:10589000286A00EB59212846FFF748FD8046B8F1F9
:1058A000000F00D053E0C9F3080105F130000C18D7
:1058B00006F0010010B1C7F3071005E0207800F0F2
:1058C000F000C7F303210843207040E0286A00EB92
:1058D00016212846FFF72AFD8046B8F1000F00D0B8
:1058E00035E040F2FF1000EA460105F130000C18E7
:1058F0002770380A60702AE0286A00EBD611284623
:10590000FFF714FD8046B8F1000F00D01FE040F211
:10591000FF1000EA860105F130000C18E07800065F
:10592000A17840EA0140617840EA012021780843EB
:1059300000F0704007432770380A6070380CA07080
:10594000380EE07003E0FFE74FF0020800BF00BF31
:10595000012028714046BDE8F08700002DE9F041A4
:1059600004464FF0000800F089FB3E48006808B983
:10597000FFF7E8FD3C480068204000285FD1A4B153
:10598000083404F0070080B104F00700C0F10800FB
:10599000044404F0070008B9012000E0002020B909
:1059A000BF2232A13AA0FDF725FE002C47D03C488B
:1059B0000068844243D83B4E3046056801E02E46DD
:1059C0002D686868A04202D228680028F7D12548CF
:1059D0000068854233D0306800F1080828683060DC
:1059E0006868001B102813D92F1907F0070008B9A1
:1059F000012000E0002020B9EC221CA124A0FDF72A
:105A0000F9FD6868001B78606C603846FFF78AFE15
:105A1000234968680968081A21490860084600682F
:105A200021490968884203D21D4800681E49086060
:105A30000D4968680968084368600020286000F024
:105A4000E9FC08F0070008B9012000E0002028B9AF
:105A50004FF4967205A10EA0FDF7CCFD4046BDE8BF
:105A6000F0810000000100200C0100202E2E5C2E91
:105A70002E5C4672656552544F535C706F72746150
:105A8000626C655C686561705F342E6300000000C5
:105A90004572726F723A25732C25640D0A0000005E
:105AA00004010020F800002008010020001F4FF032
:105AB00080730360001F21F001030360001F034B8C
:105AC000036014380260203870470000C157000896
:105AD0002DE9F04104460E46022E02D3A069B042E1
